:020000040800F2
:10000000101A00200101000877110008751000087F
:1000100075110008030200089D2700080000000079
:10002000000000000000000000000000191500089A
:10003000B102000800000000FB1400081B150008B6
:100040001B0100081B0100081B0100081B01000820
:100050001B0100081B0100081B0100081B01000810
:100060001B0100081B0100081B0100081B01000800
:100070001B0100081B0100081B0100081B010008F0
:100080001B0100081B0100081B0100081B010008E0
:10009000352700081B0100081B0100081B01000890
:1000A0001B0100081B0100081B0100081B010008C0
:1000B0001B0100081B0100081B0100081B010008B0
:1000C0001B0100081B0100081B0100081B010008A0
:1000D0001B0100081B0100081B0100081B01000890
:1000E0001B0100081B0100081B010008DFF80CD0F1
:1000F00000F03CF800480047BD280008101A002016
:100100000648804706480047FEE7FEE7FEE7FEE7B1
:10011000FEE7FEE7FEE7FEE7FEE7FEE781150008E3
:10012000ED00000840EA01039B0703D009E008C97D
:10013000121F08C0042AFAD203E011F8013B00F8AC
:10014000013B521EF9D27047D2B201E000F8012BF8
:10015000491EFBD270470022F6E710B513460A4647
:1001600004461946FFF7F0FF204610BD064C074D28
:1001700006E0E06840F0010394E807009847103477
:10018000AC42F6D3FFF7B6FFFC2900081C2A000892
:1001900070B58C1810F8015B15F0070301D110F849
:1001A000013B2A1106D110F8012B03E010F8016B76
:1001B00001F8016B5B1EF9D12B0705D40023521EF9
:1001C0000DD401F8013BFAE710F8013BCB1A921C61
:1001D00003E013F8015B01F8015B521EF9D5A1425F
:1001E000D8D3002070BDF0B50024059E06E0151997
:1001F0001F19455D6D1C641CCD55E4B2B442F6D3A5
:10020000F0BDFEE7002070470020704710B50022C7
:100210000449054801F0A8FA0449034801F09EFA90
:10022000002010BD24100020980100203C0C00206C
:1002300010B50146034801F091FA024801F072FA44
:10024000002010BD980100200022134602E08354D4
:10025000521C92B28A42FAD370470000094A10B584
:10026000D2F81822D2F814220AB1012010BD0A4691
:100270000146044801F078FABDE81040014801F059
:10028000B3BA000098010020F8B515460A460646A4
:10029000EC182146104602F073FB0146601EC0B206
:1002A0000090EBB200223046FFF79DFFA0B2F8BDF0
:1002B0007047704770B5044600F0F2F80546601CC0
:1002C00002D004480078044400F0EAF8401BA04241
:1002D000FAD370BD680000202DE9F84FDFF890A137
:1002E00000220AF1040B144601274FF00F090BF10D
:1002F000040E00BF0B6807FA04F52B40AB4274D123
:10030000DFF870C14E68A6EB0C0866452BD00DDCFB
:10031000032E34D005DC36B3012E19D0022E2FD196
:100320001BE0112E16D0122E2AD119E0B8F5881F25
:1003300019D006DCB8F5803F15D0B8F5801F1FD165
:1003400011E0B8F5001F0ED0B8F5041F18D10AE06F
:10035000CA6815E0CA68121D12E0CA6808320FE0C8
:10036000CA680C320CE08A682AB1012A4FF00802F0
:1003700003D0456104E0042202E0056100E00022B0
:10038000FF2B01D8064601E000F104064FEA840580
:1003900001D9A5F12005D6F800C009FA05F82CEA24
:1003A000080C02FA05F54CEA050CC6F800C04D68C9
:1003B000ED0057D5304DAE6946F00106AE61AD692E
:1003C00024F0030605F0010500952C4D06EB050C05
:1003D000DCF80850A6074FEA167809FA08F6B54384
:1003E000274EB04202D1002610E03BE0254EB0423D
:1003F00001D101260AE0244EB04201D1022605E0D7
:10040000224EB04201D1032600E0042606FA08F687
:100410002E43CCF808604D68DAF80060ED035546CD
:1004200001D51E4300E09E432E604D68DBF800605E
:10043000AD035D4601D51E4300E09E432E604D682E
:10044000DEF80060ED02754601D51E4300E09E43D4
:100450002E604D68AD020E4D2E6801D51E4300E0A2
:100460009E432E60641C102CFFF444AFBDE8F88F4F
:100470000004014000001110001002400000014083
:1004800000080140000C0140001001400014014030
:100490000C0401400AB1016170470904FBE7000048
:1004A00001488068704700006800002002488168A9
:1004B000027811448160704768000020074810B539
:1004C000016841F010010160032000F073F8002082
:1004D00000F006F800F024F8002010BD00200240D3
:1004E00070B50D4D04464FF47A712878B1FBF0F0E9
:1004F0000A490968B1FBF0F000F0A8FD48B9102CDA
:1005000007D200222146501E00F034F800206C6013
:1005100070BD012070BD0000680000207400002044
:100520000C4808B5816941F001018161816901F0E0
:1005300001010091C16941F08051C161C06900F0C1
:10054000805000900448416821F0E06141F0007162
:10055000416008BD001002400000014000F01F0291
:10056000012191404009800000F1E020C0F8001115
:1005700070470000F0B40E4B1B680C46C3F3022317
:10058000C3F10705042D00D90425191D072901D23F
:10059000002300E0DB1E012606FA05F1491E21407A
:1005A00099409E40761E16403143F0BC00F0E4BDF9
:1005B0000CED00E0064900F0070208684FF6FF0363
:1005C000184040EA0220034A1043086070470000C8
:1005D0000CED00E00000FA0510B50C0605D501F0A1
:1005E0007F0100EB4110283003E000EB411000F5E3
:1005F0000A7099B232B101228272C180190C018154
:10060000002010BD002282728180F9E7704700EB64
:100610004112D0F85C04D26B01F08CBA00EB4112AD
:10062000D0F85C04D2F83C2201F0D9BA10B50446E7
:100630000A460B0601F07F0004EB401101D528317A
:1006400001E001F50A710870D009487094F8280497
:10065000012809D0012084F82804206801F086FED2
:10066000002084F8280410BD022010BD70B50A4691
:100670000446090602F07F0003D504EB401128313F
:1006800003E004EB421101F50A7100258D7008703A
:10069000D009487094F82804012809D0012084F872
:1006A0002804206801F010FF84F82854002070BD51
:1006B000022070BD01F00F0100EB4110B0F84402C0
:1006C00080B2704770B504460D460E0601F07F00FB
:1006D00004EB401101D5283101E001F50A710870E1
:1006E000E80948700A61CB7094F82804012809D001
:1006F000012084F82804206801F008FD002084F817
:10070000280470BD022070BD70B50C4601F07F0555
:1007100000EB4511C1E98F230022C1F8442281F882
:10072000292281F8285201F50A716206006801F059
:1007300025FF002070BD70B50D460446090605F082
:100740007F0003D504EB4011283103E004EB451191
:1007500001F50A7101228A700870E809487094F85E
:100760002804012807D084F82824206801F0E1FE3D
:10077000680602D006E0022070BD04F22C41206819
:1007800001F0A0FE002084F8280470BD70B50C466E
:1007900001F07F0500EB4511C1E90F2300224A64F7
:1007A000012281F8292001F8285F6206006801F023
:1007B000E5FE002070BD10B50446006801F0C0FFE2
:1007C000000402D5204600F0E7FC206801F0B8FFE5
:1007D00040050CD5206830F8441F21F48061018069
:1007E000204600F0EDF80021204600F004F92068D2
:1007F00001F0A6FF400405D5206830F8441F21F41D
:1008000080410180206801F09BFF800405D52068AD
:1008100030F8441F21F400510180206801F090FF5E
:10082000C00414D5206830F8401F21F00401018075
:10083000206830F8401F21F008010180204600F0B8
:10084000D2F8206830F8441F21F4805101802068DC
:1008500001F076FF00051AD5206830F8401F41F0FE
:1008600008010180206830F8441F21F400610180F4
:10087000206830F8401F41F004010180206801F039
:100880005FFFC043C00402D5204600F0E9F82068AD
:1008900001F056FF800508D5206830F8441F21F488
:1008A00000710180204600F0A2F8206801F048FFA6
:1008B000C00505D5206830F8441F21F480710180FF
:1008C00010BD00002DE9F04186B004004FF0000596
:1008D00004D094F82904002620B108E0012006B0D5
:1008E000BDE8F08184F82864204600F04BF803202E
:1008F00084F82904206801F0DEFD04F110011422BF
:1009000088466846FFF70EFC94E80F0001F02CFDC6
:100910000021206801F027FF5FF0010704EB45107C
:1009200080F8297000F8285F8581C67006614661ED
:100930006D1C86610F2DF1D35FF0000004EB4011B8
:1009400081F8296281F82802888681F82B62C1F833
:100950003862C1F83C62401CC1F840620F28EDD3F8
:10096000142241466846FFF7DDFB94E80F0001F0D2
:1009700093FD84F8246084F82974206801F08AFDCE
:100980000020ACE708B500680B49884212D10B483B
:10099000C16941F40001C161C069002200F4000096
:1009A000009011461420FFF7E5FDBDE80840142033
:1009B000FFF7D4BD08BD0000005C004000100240FD
:1009C00070B5044680680125022801D0FFF771FC4C
:1009D0002946D4F85C0401F0CFF9D4F85C04BDE8F2
:1009E000704001F098B9D0F85C0401F0B3B9D0F8C8
:1009F0005C0401F0B5B910B5044690F8280401284C
:100A00000BD0012084F8280484F82410206801F019
:100A1000ACFE002084F8280410BD022010BDD0F8E0
:100A20005C2400F22C41104601F0B2B910B5044626
:100A300090F82804012810D0012084F828040146E9
:100A40002046FFF7E3FD206801F022FD206801F059
:100A50006AFE002084F8280410BD022010BD0000AA
:100A600010B50446D0F85C0401F0D1F9A069002863
:100A700004D00348016841F00601016010BD000088
:100A800010ED00E02DE9F84305460078354CC0072D
:100A900054D0E0690026C00008D4E06940F08050DE
:100AA000E061E069012600F0805000902E48016866
:100AB000C90512D40168804641F480710160FFF7D6
:100AC000EFFC074605E000BFFFF7EAFCC01B642807
:100AD00023D8D8F80000C005F6D5206A10F440707D
:100AE00021D0A98801F4407181421CD0206A1F499D
:100AF000012220F440700A6000220A602062C007D0
:100B000011D0FFF7CDFC074641F2883808E000BF5E
:100B1000FFF7C6FCC11B414502D90320BDE8F8839D
:100B2000206A8007F4D5206A696820F44070084381
:100B300020621EB1E06920F08050E06128788007D3
:100B400005D56068A96820F44040084360602878B3
:100B5000C00605D56068E96820F48000084360603D
:100B60000020DBE7001002400070004040044242D9
:100B70002DE9F047DFF8548105460E46D8F800000D
:100B800000F00700B0420CD2D8F8001021F00701A5
:100B90003143C8F80010D8F8000000F00700B04258
:100BA0006FD128684A4C810712D5400703D5606889
:100BB00040F4E06060602878000703D5606840F486
:100BC000605060606068A96820F0F00008436060D1
:100BD0002878C00744D06868012816D02168022808
:100BE00016D0890700294CDA616821F0030101431E
:100BF0006160FFF755FC6968074641F288300129BA
:100C00000ED00229814618D026E021688903E9E741
:100C10008901E7E7FFF744FCC11B494501D918E00A
:100C200081466068C0F381000128F3D118E000BF5D
:100C3000FFF736FCC11B49450BD86068C0F3810043
:100C40000228F5D10CE000BFFFF72AFCC11B494583
:100C500002D90320BDE8F087606810F00C0FF3D1D3
:100C6000D8F80010404601F00701B1420BD90168E5
:100C700021F0070131430160006800F00700B04235
:100C800001D00120E6E72878400705D56068E968CB
:100C900020F4E060084360602878000706D56068AB
:100CA000296920F4605040EAC100606000F016F845
:100CB0006168084AC1F30311515CC84006490860E5
:100CC0000020FFF70DFC0020C4E7000000200240D8
:100CD00000100240EC2900087400002012A185B029
:100CE0000FC98DE80F0014A0144A006804905168E1
:100CF000134801F00C03042B10D0082B0ED1C1F3C4
:100D00008343C9031DF803000AD5516804AAC1F33F
:100D10004041515C0A4A5043B0FBF1F005B07047C6
:100D200008494843FAE700000203040506070809DA
:100D30000A0B0C0D0E0F10100102000000100240F3
:100D400000127A0000093D002DE9F84F04460078B2
:100D5000B94DC00748D06868C0F38100012807D0AA
:100D60006868C0F38100022809D16868C00306D50D
:100D70002868800338D5606800286FD034E0606848
:100D8000B0F5803F0BD010B1B0F5A02F11D028687E
:100D900020F480302860286820F4802002E0286851
:100DA00040F480302860606888B1FFF779FB064620
:100DB00009E0286840F480202860F0E7FFF770FB26
:100DC000801B642875D828688003F7D50CE0FFF7EE
:100DD00067FB064605E000BFFFF762FB801B642847
:100DE000F0D828688003F7D42078944E80074FF01D
:100DF00001094FF000083BD5686810F00C0F07D0D0
:100E00006868C0F38100022809D16868C00306D46D
:100E10002868800714D5206901281FD110E02069B7
:100E2000B0B1C6F80090FFF73BFB074605E000BFF6
:100E3000FFF736FBC01B0228C4D828688007F7D507
:100E40002868616920F0F80040EAC10028600FE0DE
:100E5000C6F80080FFF724FB074606E0E9E000BF84
:100E6000FFF71EFBC01B022823D828688007F7D491
:100E7000207800072CD57248A169D9B1C0F800903C
:100E8000FFF70EFB074604E0FFF70AFBC01B022832
:100E90000FD8686A8007F7D56A484FF4FA5100689E
:100EA000B0FBF1F0009000BF0098411E0091FAD213
:100EB0000EE080E0C0F80080FFF7F2FA074604E099
:100EC000FFF7EEFAC01B022875D8686A8007F7D4CE
:100ED0002078400760D5E8690027C00008D4E86999
:100EE00040F08050E861E869012700F080500090F0
:100EF00055480168C90513D40168834641F48071DF
:100F00000160FFF7CDFA824606E000BFFFF7C8FA9E
:100F1000A0EB0A0064284ED8DBF80000C005F5D528
:100F2000E06801280AD008B1052813D0286A20F00B
:100F300001002862286A20F0040002E0286A40F0DC
:100F400001002862E06841F2883B98B1FFF7A8FAF7
:100F500082460BE0286A40F004002862EEE700BFFA
:100F6000FFF79EFAA0EB0A0159455AD8286A800774
:100F7000F6D50CE0FFF794FA824605E0FFF790FA09
:100F8000A0EB0A0159454CD8286A8007F6D41FB156
:100F9000E86920F08050E861E06988B36968C1F3CE
:100FA0008101022945D00228C6F8608004D0FFF7ED
:100FB00077FA044638E034E0FFF772FA074604E0B7
:100FC000FFF76EFAC01B02282BD828688001F7D4DF
:100FD000206AB0F5803F05D16868A16820F4003030
:100FE00008436860D4E908010843696821F4741172
:100FF00008436860C6F86090FFF752FA044606E0BE
:1010000015E000BFFFF74CFA001B022809D828683A
:101010008001F7D50BE000BFFFF742FA001B022862
:1010200002D90320BDE8F88F28688001F4D400209D
:10103000F8E70120F6E700000010024000004242FD
:1010400080044242740000200070004010B5401E31
:10105000B0F1807F01D3012010BD4FF0E02460612A
:101060000F21601700F088F80020A06107202061A0
:10107000002010BDFEE70000F0B500230A24302553
:1010800037261F4611E000BFB4EB107F02D905EBF5
:10109000107C01E006EB107C01F813C001EB430C5F
:1010A00000015B1C8CF80170DBB29342ECD3F0BD05
:1010B00070B586B0002418480094019402940394FB
:1010C000816941F010018161816901F01001049191
:1010D000816941F020018161816901F02001049161
:1010E000816941F00401816180690C4E00F00400C7
:1010F0004FF400550490002229463046FFF7CAF904
:1011000001200095CDE90104022003906946304694
:10111000FFF7E2F806B070BD001002400010014079
:1011200010B500220F49104800F0DDFC08B1FFF7B0
:10113000C0F80E490C4800F090FE08B1FFF7B9F86E
:101140000B49094800F002FB08B1FFF7B2F8064866
:1011500000F0D0FE002803D0BDE81040FFF7A9B88A
:1011600010BD000008000020980100205801002058
:1011700058000020FEE770470907090E002806DA2C
:1011800000F00F0000F1E02080F8141D704700F11E
:10119000E02080F8001470472DE9FC5F4FF0000854
:1011A0000446ADF80480ADF8008048F60F7B4FF0A0
:1011B00002094FF4806692E1BDF8041011F00F07A8
:1011C0002BD030F82710ADF80010BDF8001009043E
:1011D00078D530F8272040F68F710A4020F8272074
:1011E00004EB471595F8320205F50A7500282068CA
:1011F00069D0297830F8212052047DD5B0F85030DC
:1012000009EBC101194406EB4101415AC1F309013F
:101210005FEA010A71D0EA88D0E0BDF80410C9067F
:101220002AD4018801EA0B010180206804F1280515
:10123000B0F850202B7809EBC301114406EB4101B3
:10124000405AC0F309006064E16B0844E063002188
:101250002046FFF7DCF994F824000028ABD0A869F9
:101260000028A8D194F82400216840F08000A1F85B
:101270004C0084F8248032E1018804F50A75ADF849
:101280000010BDF8001009051ED5B0F850302978BF
:10129000062202EBC101194406EB4101405A04F257
:1012A0002C41C0F30903EB61AA88206801F04CFAD5
:1012B0002068018840F68F72114001802046FFF7B8
:1012C000AEFB0CE1A0E055E0BDF800100904D2D55A
:1012D000028840F68F710A4002802068B0F85030D2
:1012E0002978062202EBC101194406EB4101405A5C
:1012F00083059B0DEB6101E051E063E008D0AA8813
:101300006969206801F020FAE96968690844686140
:1013100000212046FFF782F92068B0F85010891D9F
:1013200006EB4101014428693E280CD9C0F34F1255
:10133000C00601D1521E92B24FF6FF7000EA822021
:1013400040F4004009E0C0F34F02C00701D0521C36
:1013500092B24FF6FF7000EA822008602168088888
:101360004BF68F72104080F4405048F280021043D8
:101370000880B4E0B0F850202B78062101EBC301BF
:10138000114406EB4101415AC1F309015FEA010A28
:1013900024D0AA885346696901F0D6F91EE0B0F856
:1013A0005020062303EBC101114406EB4101415AD1
:1013B000C1F309015FEA010A04D02A895346696929
:1013C00001F0C2F92978206830F8213048F68F7290
:1013D000134048F2C002134320F82130E96901EBC1
:1013E0000A00E861696901EB0A026A61AB6913B13D
:1013F0002869504504D929782046FFF70FF903E002
:1014000029782046FFF780F9BDF80000000666D570
:10141000206804EB471530F8271001EA0B0120F88B
:10142000271095F8320028350028206812D0297836
:1014300030F82120B0F8503052061ED509EBC1011A
:10144000194406EB4101405A83059B0DEB6124D002
:10145000EA881EE0B0F850302A7809EBC20119443E
:1014600006EB4101405A83059B0DEB6121D0AA8810
:101470006969206801F07FF91BE0062202EBC101D7
:10148000194406EB4101405A83059B0DEB6104D0E2
:101490002A896969206801F06EF92978206830F896
:1014A000212048F68F731A404CF280031A4320F82B
:1014B00021202068B0F850202B7809EBC30111449B
:1014C00006EB4101405AC0F30900E86169690A1856
:1014D0006A612978AB69204663B1FFF757F9206844
:1014E000B0F84410ADF8041009043FF565AE0020D3
:1014F000BDE8FC9FFFF78BF8F1E7704738B505466C
:101500001446104601F07AF9014600231A4628468F
:101510000094FEF768FE38BD7047FEF7C7BF30B5D0
:1015200093B028216846FEF716FE14210AA8FEF79C
:1015300012FE002401200F941094119401041294BF
:101540008DE8130004904FF4E010CDE90810022557
:1015500007956846FFF7F8FB0F20CDE90A056802FA
:10156000CDE90C4002210AA80E94FFF701FB1020E0
:101570000F9012940FA8FFF785FA13B030BD00004A
:101580000D48016841F00101016041680B4A1140BA
:10159000416001680A4A11400160016821F480211C
:1015A0000160416821F4FE0141604FF41F01816038
:1015B0000449C00308607047001002400000FFF8B3
:1015C000FFFFF6FE08ED00E0D0F8180220B1002180
:1015D000C0F81412084670470220704770B50546DF
:1015E000D0F8184200F030FBC4F80C02D5F818020D
:1015F00048B1D5F81C12D4F80402CA6804F5037186
:101600009047002070BD022070BD70B504460025D3
:10161000812100F086FA0121204600F082FA822121
:10162000204600F07EFAD4F8180250B1D4F81C021B
:1016300004F5067440688047206800F061FD0020D2
:101640002060284670BD10B5D0E9864159B194F8A4
:101650000002FF2807D08B6894F8012221469847A2
:10166000FF2084F80002002010BD00000A21018044
:1016700000487047800000204321018000487047E7
:10168000D000002043210180004870478C000020DA
:101690004321018000487047140100202DE9F041EA
:1016A0000446007C00254FF4007670B340230222EC
:1016B0008121204600F01AFB40230222012120460E
:1016C00000F014FB082303228221204600F00EFBC9
:1016D0004FF4077000F016FDC4F81802F0B1074689
:1016E000D4F81C02006880470020C7F81402C7F82D
:1016F0001802207CD7F8042290B140230121204613
:1017000000F000FB2846BDE8F081FFE733460222E7
:101710008121204600F0EAFA3346CEE70125F1E7C1
:101720003346EBE710B5D0F8181269B1027C002AF5
:10173000D1F8042205D04023012100F0E3FA002073
:1017400010BD4FF40073F7E7022010BD02460220DF
:10175000002902D00020C2F81C127047D0F81802ED
:10176000C0F8041200207047D0F81802C0F8102208
:10177000C0F808120020704770B50646D0F818521D
:1017800008780C4610F0600121D0202927D1E2888A
:10179000AAB10006607807D5D6F81C128B682946D6
:1017A0009847E288294617E085F80002A07985F875
:1017B0000102E2882946304600F050F80FE0D6F8E2
:1017C0001C12607800228B682146984707E06078F9
:1017D0000A2804D103490122304600F059F80020BC
:1017E00070BD00007C00002010B5D0F8181289B13F
:1017F000D1F814220AB1012010BD0122C1F814222F
:10180000B1F8102293B2D1F80822812100F008FB30
:10181000002010BD022010BD10B5D0F8142252686F
:101820009047002010BD134610B50A46002100F075
:1018300069FA002010BD134610B50A46002100F0D9
:10184000EFFA002010BD10B50446802100F0CDFA5B
:101850002046BDE81040002100F0C7BA10B50323B0
:10186000C0F80821C0F8F431C0F80C2113460A462C
:10187000002100F047FA002010BD10B5052100231B
:10188000C0F8F4111A46194600F03CFA002010BDC9
:1018900010B502238261C0F8F431C26113460A46D2
:1018A000002100F0BDFA002010BD10B50421002376
:1018B000C0F8F4111A46194600F0B2FA002010BD23
:1018C00010B50A46024903A000F0DEF8004810BD3A
:1018D0003C0A002043444320436F6E666967000062
:1018E00012200880004870472800002010B50A46E2
:1018F000024903A000F0C8F8004810BD3C0A0020CF
:1019000043444320496E746572666163650000005C
:1019100004200880004870472400002010B50A46C3
:10192000024903A000F0B0F8004810BD3C0A0020B6
:1019300053544D6963726F656C656374726F6E6941
:101940006373000010B50A46024903A000F09CF83A
:10195000004810BD3C0A002053544D3332205669D4
:10196000727475616C20436F6D506F72740000006B
:1019700010B51A2008800A480168001D0468001D7F
:101980000068081809D008220649FFF775FB0549C9
:10199000042210312046FFF76FFB0248801E10BD65
:1019A000E8F7FF1F3E000020F8B5044648880D46C2
:1019B000010A08294BD2DFE801F04A0409174A4A14
:1019C0004048D4F81012207C0A6832E0207C0226BD
:1019D0000028D4F8140205D0C16A68468847014639
:1019E000467041E0816AF8E7C0B206282FD2DFE8EE
:1019F00000F003080D12171CD4F81012207C4A685E
:101A000017E0D4F81012207C8A6812E0D4F8101283
:101A1000207CCA680DE0D4F81012207C0A6908E026
:101A2000D4F81012207C4A6903E0D4F81012207C0C
:101A30008A6969469047014616E0207C38B9D4F897
:101A40001402416B68468847F5E7207C20B129469F
:101A50002046FFF7F8FEF8BDD4F81402016B684683
:101A60008847014607204870BDF800000028F2D0E2
:101A7000EA88002AEFD0824200D90246ADF8002061
:101A80002046FFF705FFF8BD70B5002300281DD0E4
:101A90000446002502E06D1CEDB2641C2678002E81
:101AA000F9D1022404EB45041480CC545B1C0322BE
:101AB000CA5400245B1C06E0CA545B1CDAB28C5486
:101AC000521CD3B2401C0278002AF5D170BD01002F
:101AD0004FF0000004D0012901D0022901D00220DA
:101AE00070470120704710B580B1D0F8143213B19F
:101AF0000023C0F8143209B1C0F81012012180F897
:101B0000FC11027000F0A4F8002010BD022010BDEE
:101B100010B5D0F82002FEF7A9FDBDE81040FFF790
:101B2000D6BF10B5D0F82002FEF780FDBDE810400A
:101B3000FFF7CDBF2DE9F0411746044641B1D4F877
:101B4000140242698AB394F8FC01032842D043E0AE
:101B5000D4F8F411002504F11400022933D1D0E99E
:101B600002639E4207D9F31A83609AB2394620462F
:101B7000FFF761FE12E04068B0FBF3F103FB1101D7
:101B8000A1B9984212D3D4F8F81188420ED200229B
:101B900011462046FFF74FFEC4F8F85100231A46BD
:101BA0001946204600F0AEF80DE012E0D4F8140219
:101BB000C16829B194F8FC01032801D12046884767
:101BC0002046FFF75AFE94F80002012804D184F859
:101BD000005201E0204690470020BDE8F08170B53A
:101BE0001546044641B1D4F8140282693AB394F818
:101BF000FC01032824D025E0D4F8F41104F5827008
:101C000003291FD1D0E902218A420BD9531A8360DC
:101C10000846834200D303469AB229462046FFF77E
:101C200002FE0FE0D4F81402016929B194F8FC0116
:101C3000032801D1204688472046FFF736FE01E001
:101C400020469047002070BDD0F82002FEF732BD3C
:101C500010B504461C481D49C0F85C44C4F8200275
:101C60000160082141600221816000218161C16120
:101C70000162FEF727FE08B1FEF71BFB0022D4F835
:101C800020021823114604F50874FEF7A5FC58231A
:101C9000002280212068FEF79FFCC02300228121C2
:101CA0002068FEF799FC4FF4887300220121206818
:101CB000FEF792FC4FF48073002282212068FEF729
:101CC0008BFC002010BD0000DC050020005C004003
:101CD0000A06D0F8200201F07F0100EB411002D586
:101CE00090F82A00704790F82A02704710B51C46F9
:101CF0001346D0F820022246FEF7E4FCBDE810406F
:101D0000FFF7E5BE10B5D0F82002FEF7FDFCBDE8F8
:101D10001040FFF7DCBE70B5002204464023114698
:101D2000FFF7E4FF40252B46002280212046C4F81F
:101D30001051FFF7DBFF0120256284F8FC01D4F885
:101D4000180228B1D4F8140221794268204690473D
:101D5000002070BD90F8FD1180F8FC110020704744
:101D600010B590F8FC11032904D1D0F81412C969F8
:101D700001B18847002010BD01740020704710B5E4
:101D8000D0F82002FEF737FEBDE81040FFF79FBEF7
:101D900070B5044600F50270054600F04AF80120CF
:101DA000C4F8F401B4F80E02C4F8F80194F808027B
:101DB00010F01F010AD001290DD0022910D000F027
:101DC0008001204600F011F8002070BD2946204611
:101DD00000F095F8F8E72946204600F077F9F3E798
:101DE0002946204600F004F9EEE710B5D0F82002AD
:101DF000FEF7A1FCBDE81040FFF769BE10B5D0F8B2
:101E00002002FEF713FEBDE81040FFF760BE90F819
:101E1000FC1180F8FD11042180F8FC1100207047AE
:101E200010B5D0F82002FEF7B1FCBDE81040FFF776
:101E30004EBE0A7802704A7842708A78CB7802EBFC
:101E4000032242800A794B7902EB032282808A794D
:101E5000C97902EB0121C18070470246002011B10F
:101E6000C2F8141270470220704710B5D0F814223F
:101E700002241AB11268904700B90024204610BD10
:101E800070B50E461A4D897804462970012928D864
:101E900094F8FC01022802D0032822D105E099B170
:101EA0000320616084F8FC0109E091B16068884218
:101EB0000AD0C1B22046FFF7AFFC29786160204606
:101EC000FFF7D3FF02280CD02046BDE87040FFF793
:101ED000ECBC022084F8FC0120466160FFF79CFC0A
:101EE000F2E731462046BDE87040FFF7ACBC000089
:101EF0007800002010B5FFF781FF002010BD2DE90C
:101F0000F04100264B78012532460A2B43D2DFE808
:101F100003F03C584251420805422A27FFF744FD8E
:101F200063E004468888C8B9C888B8B9887800F0E2
:101F30007F0794F8FC01032810D084F8FE7139461D
:101F40002046FFF71CFF2046FFF7AFFC1FB1022021
:101F500084F8FC0149E084F8FC5146E020461AE090
:101F6000FFF78EFF41E0CB88012B14D190F8FC31B4
:101F7000022B02D0032B0ED104E08260012200F17B
:101F8000080114E00122011D11E090F8FC21022A51
:101F900004D0032A02D0FFF756FC26E0C560D0F833
:101FA000041209B10321C160022200F10C01FFF704
:101FB0006FFC1AE004464888012816D1C4F8045280
:101FC0000BE0044690F8FC01022801D00328C5D19B
:101FD0004888012809D1C4F80422D4F81402826880
:101FE000204690472046FFF760FC3046BDE8F08170
:101FF00070B50D460446287800260979C0F34110D3
:10200000012806D06878A0B301281FD003283FD14B
:1020100007E0D4F814022946826820469047002041
:1020200070BD94F8FC01022817D003282CD16888D1
:1020300028B921B1802902D02046FFF7D6FED4F876
:102040001402294682682046904713E094F8FC0168
:10205000022802D0032817D103E0C9B180291BD17F
:1020600016E06888A0B9480604D02046FFF750FD66
:10207000E5E703E02046FFF718FC09E094F8FC01CF
:10208000022807D003280BD029462046FFF7DBFBA8
:10209000304670BD4806FBD02046FFF7A6FEF7E7A6
:1020A000080601F07F0004EB001501D5143501E0AE
:1020B00005F582752046FFF70BFE00B10120286070
:1020C000022229462046FFF7E3FBE1E770B505460B
:1020D00090F8FC010C4603280DD1207901280AD87C
:1020E000D5F81402826828469047E08830B928461F
:1020F000FFF7DBFB02E02846FFF7A5FB002070BDE1
:102100007047000000487047BC0300202DE9F047ED
:10211000CC780A7848F68F1334B1012C6DD0022C9C
:1021200008D0032C13D10BE030F822401C4044F4BB
:1021300000730AE030F822401C4020F8224006E0FC
:1021400030F822401C4044F4C06320F822300C7860
:1021500030F8245048F68F72154048F280031D4332
:10216000254320F824508D7A48F6BF7904274BF692
:102170008F7A48F2C0044CF28006EDB30D7830F847
:1021800025C048F280180CEA020C4CEA080C20F832
:1021900025C0CD88B0F850C025F0010591F8008029
:1021A0000CEBC80C00EB4C0CCCF800540D89B0F8CB
:1021B00050C025F0010591F8008007EBC80767447F
:1021C00000EB4707C7F800544D78002D0D7830F824
:1021D00025704FEA47477DD0002F05DA30F825708B
:1021E0001740374320F825700D7830F825707F06AA
:1021F00008D530F8257001E024E01DE017402743A2
:1022000020F825700C7830F824501540354320F81C
:1022100024500C7830F8242002EA09021A4320F8EE
:1022200024200A7830F8221001EA0A01194320F824
:1022300022100020BDE8F08730F822401C4044F412
:10224000806382E74D78F5B18D88B0F8506025F055
:1022500001050F7806EBC70600EB4606C6F80054EA
:102260000D7830F82560760605D530F825601640E3
:10227000264320F825600A7830F8221001EA090187
:1022800081F02001D2E78C88B0F8505024F001048E
:1022900091F800C007EBCC073D4400EB4505C5F8BD
:1022A0000044B0F850400D78062707EBC5052C44D4
:1022B00000EB44070C694FF6FF7C07F580673E2C66
:1022C0000CD9C4F34F15E40601D16D1EADB20CEA72
:1022D000852400E01EE044F4004407E0C4F34F0509
:1022E000E40701D06D1CADB20CEA85243C600C788B
:1022F00030F824506D0405D530F82450154035438E
:1023000020F824500A7830F8221001EA0A0181F4FA
:1023100040518BE7002F05DA30F82570174037431E
:1023200020F825700D7830F82560760605D530F850
:1023300025601640264320F825600E7830F8265098
:102340001540254320F826500C7830F8242002EA66
:102350000A0282F440521A4320F824200A7830F806
:10236000221001EA090161E7002070472DE9F043DE
:1023700091F80A8091F801C00A7848F6BF774BF6C9
:102380008F7948F2800348F2C0054CF2800648F687
:102390008F74B8F1000F2ED0BCF1000F30F822C0BE
:1023A0004FEA4C4C4ED0BCF1000F07DA30F822C097
:1023B0000CEA040C4CEA060C20F822C00A7830F82B
:1023C00022C05FEA4C6C07D530F822C00CEA040C3E
:1023D0004CEA050C20F822C00A7830F8225025403B
:1023E000354320F822500C7830F824203A401A4324
:1023F00020F824201BE0BCF1000F0ED030F8226042
:10240000760605D530F8226026402E4320F822605B
:102410000A7830F8221039400EE030F822506D046E
:1024200005D530F822502540354320F822500A784F
:1024300030F8221001EA0901194320F82210002087
:10244000BDE8F083BCF1000F07DA30F822C00CEAD7
:10245000040C4CEA060C20F822C00A7830F82260FE
:10246000760605D530F8226026402E4320F82260FB
:102470000E7830F8262022402A4320F826200C78B7
:1024800030F8242002EA09021A4320F82420BFE78A
:10249000002070470020704700B50121A0F84010CF
:1024A0000021A0F84010A0F84410A0F8501000F04F
:1024B0003AF9002000BD30F8401F21F43D41018071
:1024C000002070470020704730B54D780A78002D05
:1024D00048F68F7430F8225048F2800312D06D060F
:1024E00007D530F82250254048F2C004254320F893
:1024F00022500A7830F8221048F6BF74214081F04B
:10250000300111E06D0407D530F8225025404CF21F
:102510008004254320F822500A7830F822104BF628
:102520008F74214081F44051194320F8221000207B
:1025300030BD10B50A7848F2800352B149780029BD
:1025400030F8221010D048F6BF74214081F01001FD
:102550000FE001884BF6BF72114081F4805181F089
:1025600010011943018007E04BF68F74214081F47C
:102570008051194320F82210002010BD2DE9F041B0
:102580000D460646896995F801C00023AA7A0227FC
:1025900028690C4648F28008BCF1010F05D0814241
:1025A00052D90446081AA8614FE0814203D9044673
:1025B000081AA86100E0AB617AB1287836F82010DB
:1025C0004906B6F8501007EBC000084406EB40007F
:1025D000C0F8004412D52A8911E0A3B2AA88304677
:1025E000696900F0C8F8B6F85000297807EBC10116
:1025F000084406EB4000C0F800441CE0EA88A3B29F
:102600003046696900F0B7F8687848F68F7110B104
:10261000012807D00FE0287836F820200A4048F239
:10262000C00105E0287836F820200A404CF28001ED
:102630000A4326F82020297836F8210048F6BF7290
:10264000104080F0300067E0AB6106234FF6FF706A
:102650001AB1BCF1000F1BD056E0B6F850102A7822
:102660003E2C03EBC202114406EB410202F58062EC
:1026700039D9C4F34F11E30632D000BF00EA8120FC
:1026800040F4004002E000BF00EA812010603BE01F
:10269000B6F850102A783E2C07EBC202114406EB24
:1026A000410202F580620BD9C4F34F115FEAC46C9A
:1026B00001D1491E89B200EA812141F4004108E0BC
:1026C000C4F34F015FEAC47C01D0491C89B200EA1F
:1026D0008121116069780029BFD001290AD013E057
:1026E000491E89B2CAE7C4F34F01E307CCD0491CA5
:1026F00089B2C9E7B6F85000297807EBC101084450
:1027000006EB4000C0F80044297836F821004BF66B
:102710008F72104080F4405040EA080026F82100F3
:102720000020BDE8F08130F8401F41F43F410180B6
:10273000002070470148FEF73EB80000DC0500208D
:10274000B0F84400704700005B1C00EB42005B08DF
:1027500000F5806006D000BF30F8042B21F8022B72
:102760005B1EF9D170470020704711B98021A0F895
:102770004C100020704710B55B1C00EB42005B085A
:1027800000F5806009D011F8012B5B1E11F8014B98
:1027900042EA042220F8042BF5D110BDFEE7000028
:1027A00030B528B1144C031F002021680A4605E00B
:1027B000084630BD9A4203D810465268002AF9D123
:1027C000002800D041680BD00468A3EB0005A542A7
:1027D00004D11B681C440346046002E0436000E02F
:1027E00023603AB11C68D51AA54203D115682C4460
:1027F0001C6052685A6030BD900100202DE9F047FE
:1028000082460F4C10480D4E0E4F001B4FF0000833
:1028100020F007054FF0010900221146504600F054
:1028200025F8002802D1306810B10020BDE8F087FB
:102830003C60C4E90058C6F80090EDE79401002020
:1028400014140020900100201016002002E008C897
:10285000121F08C1002AFAD170477047002001E01A
:1028600001C1121F002AFBD1704700002DE9F04181
:102870000B3020F00706104D19E02068B04215D348
:10288000B0420AD9871B201DD4F80480FDF74AFC0A
:10289000A019C0E90078286004E060682860201D65
:1028A000FDF740FC201D2660BDE8F081251D2C6849
:1028B000002CE2D10020F7E790010020FDF7FEFD9B
:1028C000FEF72DFEFEF7F4FBFEF72AFC294D2A4CFD
:1028D0002A4F4FF400566420FDF7ECFC01223146EC
:1028E0002846FDF7D7FD2078AA2819D0FD282ED03C
:1028F000FE2820D0FF28EED1002231462846FDF7E1
:10290000C9FD607878807868FFF74AFFBA78A01C24
:102910007968FEF7F3FD7888801C81B2164825E0BF
:10292000002231462846FDF7B5FD01211348FDF789
:1029300095FC0121F2E7002231462846FDF7AAFD69
:1029400079887868FDF78AFC00202070C3E70022B0
:1029500031462846FDF79EFD63787A88A01C796889
:10296000FDF792FC788061780348891CFDF76CFCC8
:10297000B1E70000001001403C0C002000000020E6
:102980002DE9F04704008A4616D054F8047CD4F8A8
:1029900000903E1F564500D956462046FFF700FFDF
:1029A00005468846324621465046FFF75FFF40B154
:1029B000C0F80090BDE8F087BDE8F0470846FFF793
:1029C0001DBF44E9017955B129686A18211F8A425F
:1029D00002D9611B091F2960C5F80480EAE7024A91
:1029E000C2F80080E6E7000090010020000000002F
:1029F0000000000001020304060708091C2A000861
:102A0000000000209801000090010008E42A00085E
:102A100098010020781800005C28000872AA13E1D1
:102A200018140811191B081D041A45041A71041AF8
:102A3000C1141AED0417040309041201140202025E
:102A4000164083044057260201020301031A1A03A9
:102A5000130D021B0809041A05041A3104192F1159
:102A6000821084A24A04130A0632022A40201C095A
:102A700002435B111CC032091F1B01020B1305240A
:102A80001610010524011009010424020205240680
:102A9000170107058203081C10090491320A1D075B
:102AA000050102432C070581070938442A40072AFB
:102AB0008107112B0907440A2204440A16FF441314
:102AC0009D161B080B0413791742081A470C13C9EB
:102AD000151B08DD04C12A852419041A91041A6DF6
:042AE000048100006D
:04000005080000ED02
:00000001FF
